:020000040000FA
:100000000C9430020C9458020C9458020C94580230
:100010000C9458020C9458020C9458020C945802F8
:100020000C9458020C9458020C9458020C945802E8
:100030000C9458020C9458020C9458020C945802D8
:100040000C945F220C9458020C94CF220C94A92299
:100050000C9458020C9458020C9458020C945802B8
:100060000C9401230C94580200407A10F35A00A01B
:10007000724E18090010A5D4E80000E87648170071
:1000800000E40B54020000CA9A3B000000E1F505B1
:10009000000080969800000040420F000000A086FB
:1000A00001000000102700000000E803000000002D
:1000B0006400000000000A000000000001000000D1
:1000C00000002C76D888DC674F0823DFC1DFAE59EB
:1000D000E1B1B796E5E3E453C63AE651997696E87E
:1000E000E6C28426EB898C9B62ED407C6FFCEFBC02
:1000F0009C9F40F2BAA56FA5F490055A2AF75C932D
:100100006B6CF9676DC11BFCE0E40D47FEF520E662
:10011000B500D0ED902E0300943577050080841E45
:10012000080000204E0A000000C80C333333330FA0
:10013000986E12831141EF8D2114893BE65516CF3D
:10014000FEE6DB18D1844B381BF77C1D901DA4BB49
:10015000E424203284725E228100C9F124ECA1E5FE
:100160003D275D2000626C6E6B696E66007665727D
:1001700000312E312E3000682D62656174003435F7
:1001800000627566662D696E0032353600646576EC
:100190000041726475696E6F20556E6F00637075F3
:1001A0000041546D6567613332385000636F6E00F3
:1001B00057353130300066772D7479706500544DB5
:1001C000504C65744351624E5F4C006275696C64BB
:1001D000004A616E20203320323032332031373AEA
:1001E00033333A31330000000D0A202020205F5FB6
:1001F0005F20205F5F202020202020202020205F03
:100200005F0D0A2020202F205F20292F202F5F2024
:100210005F5F5F5F5F20202F202F5F5F0D0A202030
:100220002F205F20202F202F202F2F202F205F20F6
:100230005C2F2020275F2F0D0A202F5F5F5F5F2F2D
:100240005F2F5C5F2C202F5F2F2F5F2F5F2F5C5F56
:100250005C0D0A20202020202020202F5F5F5F2FB0
:100260002076312E312E30206F6E204172647569F8
:100270006E6F20556E6F0D0A0D0A20235374616E48
:100280006457697468556B7261696E65202020201F
:1002900068747470733A2F2F6269742E6C792F739F
:1002A0007775610D0A0D0A0049503A0044484350E1
:1002B000204661696C6564210047657474696E67E6
:1002C0002049502E2E2E0000000000240027002A76
:1002D0000000000000250028002B00436F6E6E65B3
:1002E0006374696E6720746F2000436F6E6E656380
:1002F00074696E6720746F20006D73292E0052653B
:10030000616479202870696E673A2000000000005F
:100310002300260029000404040404040404020247
:100320000202020203030303030301020408102074
:10033000408001020408102001020408102000007F
:100340000008000201000003040700000000000094
:1003500000005B025B025B025B025B025B025B0212
:100360005B025B025B025B025B025B025B025B02A5
:100370005B025B025B025B025B025B025B025B0295
:100380005B025B025B025B025B025B025B025B0285
:100390005B025B0B5A023B0B5A02130BEB0A5A022D
:1003A0005A025A025A025A025A025A025A025A026D
:1003B0005A025A025A025A025A025A025A025A025D
:1003C0005A025A025A025A025A025A025A025A024D
:1003D0005A02496E76616C696420485720636D64E7
:1003E0003A20005365727665723A2000526564695E
:1003F00072656374696E6720746F20005265616472
:1004000079005061636B657420746F6F2062696757
:100410003A2000436F6E6E656374206661696C6597
:10042000642E20636F64653A2000496E76616C69C2
:1004300064206175746820746F6B656E004C6F6723
:10044000696E2074696D656F7574004865617274BA
:10045000626561742074696D656F75740000BF24F6
:1004600011241FBECFEFD8E0DEBFCDBF12E0A0E069
:10047000B1E0E4E4FDE602C005900D92A43AB107B4
:10048000D9F726E0A4EAB2E001C01D92A838B2076D
:10049000E1F712E0C0E3D2E004C02197FE010E9420
:1004A000A135CF32D107C9F70E94AA250C94A036F6
:1004B0000C940000089508958CBD9DBD089520E31F
:1004C000FC0120833296862F82958F706F706A3080
:1004D00030F4605D6293682F8111F5CF0895695CF7
:1004E000F9CFFC01818D928D0895833081F028F43D
:1004F000813099F08230A9F008958730A9F08830D2
:10050000C9F08430B1F4809180008F7D03C0809168
:1005100080008F7780938000089584B58F7784BDA5
:10052000089584B58F7DFBCF8091B0008F77809345
:10053000B00008958091B0008F7DF9CF1F93CF93C5
:10054000DF93282F30E0F901E25CFC4F8491F90140
:10055000E65DFC4FD491F901EA5EFC4FC491CC23D7
:10056000A9F0162F81110E947502EC2FF0E0EE0F1A
:10057000FF1FEF52FD4FA591B4918FB7F894EC9106
:10058000111108C0D095DE23DC938FBFDF91CF918E
:100590001F910895DE2BF8CFCF93DF9390E0FC01FD
:1005A000E65DFC4F24918A5E9C4FFC018491882378
:1005B000C9F090E0880F991FFC01E953FD4FA59108
:1005C000B491FC01EF52FD4FC591D49161110DC062
:1005D0009FB7F8948C91209582238C93888128234F
:1005E00028839FBFDF91CF910895623051F49FB768
:1005F000F8943C91822F809583238C93E8812E2B55
:10060000EFCF8FB7F894EC912E2B2C938FBFEACFBE
:100610001F93CF93DF93182FEB0161E00E94CC0270
:10062000209739F460E0812FDF91CF911F910C94D6
:100630009E02CF3FD10511F461E0F5CFE12FF0E04C
:10064000E25CFC4FE491E33031F140F4E130B1F091
:10065000E230E1F0C038D1057CF7E4CFE73029F192
:10066000E83059F1E430B1F78091800080628093E6
:100670008000D0938B00C0938A0004C084B580684A
:1006800084BDC7BDDF91CF911F91089584B580626D
:1006900084BDC8BDF7CF80918000806880938000C2
:1006A000D0938900C0938800EDCF8091B00080681E
:1006B0008093B000C093B300E5CF8091B00080621A
:1006C0008093B000C093B400DDCF8E3008F08E5020
:1006D0008770806480937C0080917A00806480932E
:1006E0007A0080917A0086FDFCCF8091780090910D
:1006F000790008953FB7F8948091D5039091D6037F
:10070000A091D703B091D80326B5A89B05C02F3F71
:1007100019F00196A11DB11D3FBFBA2FA92F982F27
:100720008827BC01CD01620F711D811D911D42E022
:10073000660F771F881F991F4A95D1F708958F92EA
:100740009F92AF92BF92CF92DF92EF92FF926B0196
:100750007C010E947A034B015C01C114D104E104C5
:10076000F104B9F00E947A03681979098A099B0992
:10077000683E73408105910580F321E0C21AD108DB
:10078000E108F10888EE880E83E0981EA11CB11CD8
:10079000E4CFFF90EF90DF90CF90BF90AF909F900D
:1007A0008F9008952FB7F8946091D1037091D20380
:1007B0008091D3039091D4032FBF08950895089595
:1007C00008954F925F926F927F92AF92BF92CF92B5
:1007D000DF92EF92FF920F931F93CF93DF93EC0181
:1007E0006B017B01E40EF51E8B015801AC18BD08AE
:1007F0000E151F0511F10E94D203688779878A8739
:100800009B87E881F9810284F385E02DCE0109956B
:1008100097FF23C00E94D203488459846A847B8452
:1008200064197509860997094C805D806E807F8008
:10083000641575058605970520F3C501DF91CF91F5
:100840001F910F91FF90EF90DF90CF90BF90AF90EE
:100850007F906F905F904F900895F80181938F0182
:10086000C4CFDC01ED91FC910190F081E02D099461
:10087000AF92BF92CF92DF92EF92FF920F931F93AE
:10088000CF93DF936C017B018B01040F151FEB01EC
:100890005E01AE18BF08C017D10759F06991D601A3
:1008A000ED91FC910190F081E02DC6010995892B15
:1008B00079F7C501DF91CF911F910F91FF90EF90D4
:1008C000DF90CF90BF90AF900895FC01538D448D81
:1008D000252F30E0842F90E0821B930B541710F0EB
:1008E000CF96089501970895FC01918D828D9817F8
:1008F00061F0A28DAE0FBF2FB11D5D968C91928DD0
:100900009F5F9F73928F90E008958FEF9FEF089500
:10091000FC01918D828D981731F0828DE80FF11DC9
:10092000858D90E008958FEF9FEF0895FC01918DE4
:10093000228D892F90E0805C9F4F821B91098F73DD
:100940009927089586EF93E00E94960421E0892B71
:1009500009F420E0822F089580E090E0892B29F0AF
:100960000E94A20481110C9400000895FC01A48D42
:10097000A80FB92FB11DA35ABF4F2C91848D90E0C1
:1009800001968F739927848FA689B7892C93A089A4
:10099000B1898C91837080648C93938D848D98132E
:1009A00006C00288F389E02D80818F7D80830895C1
:1009B000EF92FF920F931F93CF93DF93EC0181E0AF
:1009C000888F9B8D8C8D98131AC0E889F989808156
:1009D00085FF15C09FB7F894EE89FF896083E88989
:1009E000F98980818370806480839FBF81E090E07B
:1009F000DF91CF911F910F91FF90EF900895F62E08
:100A00000B8D10E00F5F1F4F0F731127E02E8C8DA1
:100A10008E110CC00FB607FCFACFE889F9898081E6
:100A200085FFF5CFCE010E94B604F1CFEB8DEC0F20
:100A3000FD2FF11DE35AFF4FF0829FB7F8940B8F03
:100A4000EA89FB8980818062CFCF0F931F93CF9378
:100A5000DF938C01D0E0C0E0F801EC0FFD1F649142
:100A6000662341F086EF93E00E94D804892B11F0B1
:100A70002196F2CFCE01DF91CF911F910F91089572
:100A8000682F86EF93E00C94D804CF93DF93EC01AA
:100A9000888D8823B9F0AA89BB89E889F9898C9166
:100AA00085FD03C0808186FD0DC00FB607FCF7CF22
:100AB0008C9185FFF2CF808185FFEDCFCE010E9422
:100AC000B604E9CFDF91CF9108952091E602260F79
:100AD0003327331F21323105ECF420912F03FC0121
:100AE00090E080E0243069F082E00895A091E60271
:100AF0002191AC014A535D4FA40FB52FB11D2C932A
:100B00000196861798F38091E602680F6093E602DB
:100B100080E0089581E0089510922F0381E0809392
:100B20002E031092090361E082E10E949E0261E0BF
:100B300083E10E949E02E9EBF0E080818E7F80835A
:100B400080818D7F808388E48093B80085E48093E2
:100B5000BC000895CF93DF9391E09093C502882362
:100B6000B9F0C091B800D091BA008091BC008A7BE6
:100B70008093BC0060E082E10E949E0260E083E11D
:100B80000E949E020E948C05D093BA00C093B800C8
:100B9000DF91CF910895E091CC038091CB03E817CA
:100BA00030F4F0E0EB55FD4F808190E008958FEF39
:100BB0009FEF08959091CC038091CB032FEF3FEFEF
:100BC000981748F4E92FF0E0EB55FD4F208130E015
:100BD0009F5F9093CC03C90108958091CB039091BE
:100BE000CC03891B990B0895CF92DF92EF92FF926D
:100BF0000F931F93CF93DF937C01CB018A01209148
:100C00003503222389F0EB016B01C40ED51ECC15F0
:100C1000DD0569F06991D701ED91FC910190F081BA
:100C2000E02DC7010995F3CF642F0E946505C80127
:100C3000DF91CF911F910F91FF90EF90DF90CF90B8
:100C40000895CF93DF931F92CDB7DEB769832091CC
:100C500035032223F9F02091C903203258F021E016
:100C600030E0FC013383228390E080E00F90DF913D
:100C7000CF9108958091CA03E82FF0E0EA5CFC4F21
:100C8000998190838F5F8093CA038093C90381E029
:100C900090E0ECCF61E0CE0101960E946505F7CFB0
:100CA000CF92DF92EF92FF920F931F93CF93DF9338
:100CB000FC01C48121E020933503C09356031092B8
:100CC000CA031092C9038385682B83E994E00E94CC
:100CD0002106D091C903D13208F092C00E947A0354
:100CE0006B017C0180912F03811165C082E08093AC
:100CF0002F0381E080932E038FEF80932D031092BA
:100D00002C03D0932B03A6E3B3E0EBE0F3E080E009
:100D1000D81385C010920A0380910A03CC0FC82B08
:100D2000C0930A0380910903813009F07CC01092BE
:100D300009030E947A036B017C0180910A0380936E
:100D4000BB008091310390913203A0913303B091A5
:100D50003403892B8A2B8B2B99F00E947A03009104
:100D600031031091320320913303309134036C1915
:100D70007D098E099F090617170728073907E0F133
:100D80008091BC0083FDD9CF85EC8093BC000E948C
:100D90007A036B017C0180912F03823009F445C0F6
:100DA00080912D038F3F61F180912D03803241F1BD
:100DB00080912D0325C08091310390913203A09141
:100DC0003303B0913403892B8A2B8B2B09F48ACF00
:100DD0000E947A0300913103109132032091330372
:100DE000309134036C197D098E099F090617170786
:100DF0002807390708F076CF809130030E94AA05B2
:100E00001092CA031092C90310923503DF91CF915B
:100E10001F910F91FF90EF90DF90CF9008959D91DB
:100E200091938F5F75CF85EEB0CF80913103909114
:100E30003203A0913303B0913403892B8A2B8B2B7F
:100E400009F4A9CF0E947A03009131031091320373
:100E500020913303309134036C197D098E099F0969
:100E6000061717072807390708F095CFC5CFFC01EB
:100E700020812EBD9B012150310941F051810DB4DB
:100E800007FEFDCF4EB55EBD4193F5CF61507109B0
:100E9000860F971F0DB407FEFDCF2EB5FC012083F2
:100EA0000895E0915803F091590380819091570380
:100EB000892B80830895E0915803F0915903908124
:100EC0008091570380958923808308958EBD00000B
:100ED0000DB407FEFDCF8EB50895AF92BF92CF92AD
:100EE000DF92EF92FF920F931F93CF93DF93CDB7D3
:100EF000DEB728970FB6F894DEBF0FBECDBF8C01CA
:100F00007B016A018091F5038333E1F45801A40E5B
:100F1000B51EA016B10609F46FC00E945B0780EFF2
:100F20000E946607812F0E946607802F0E94660735
:100F30000F5F1F4FF70181917F010E9466070E949A
:100F40005107E7CF5B01A40EB51E8433C1F40E94A4
:100F50005B0719830A838D2D80688B83CC8264E0C4
:100F600070E0CE0101960E943707AE14BF0409F469
:100F700041C0F70181917F010E946607F6CF0E9470
:100F80005B070F3F110509F028F419820A8384E0FA
:100F90008B830CC017FD17C019820A8333E01695A6
:100FA00007953A95E1F7007E0C600B8386E0C81642
:100FB000D104A0F5F701DE011496EA15FB0599F0BE
:100FC00081918D93FACFC80126E0969587952A9551
:100FD000E1F7807E19830A830115104C10F48461B7
:100FE000D7CF8C61D5CFB6016D5F7F4FCE01019613
:100FF0000E9437070E945107C60128960FB6F89441
:10100000DEBF0FBECDBFDF91CF911F910F91FF903B
:10101000EF90DF90CF90BF90AF90089563E070E0C5
:10102000CE0101960E943707F70181917F010E944E
:101030006607AE14BF04C1F7DDCFCF93DF931F92D5
:10104000CDB7DEB7898341E050E0BE016F5F7F4FCF
:1010500090E080E00E946D070F90DF91CF9108959E
:1010600090E02091F503233339F40C96982F990FD3
:10107000990F990F80E008954896F8CFDA01E09132
:101080005B03F0E0FE2FEE27E60FF71F90E0982FAE
:101090008827A901BD018E0F9F1F0C946D07CF9368
:1010A000DF9300D0CDB7DEB779836A8322E030E0EA
:1010B000AE014F5F5F4F60E170E00E943E080F900D
:1010C0000F90DF91CF910895CF93DF9300D0CDB7EC
:1010D000DEB779836A8322E030E0AE014F5F5F4F75
:1010E00064E070E00E943E080F900F90DF91CF9176
:1010F0000895CF93DF931F92CDB7DEB720915B03A6
:1011000030E0322F2227260F371F90E0982F8827B4
:10111000498341E050E0BE016F5F7F4F820F931F14
:101120000E946D070F90DF91CF910895CF93DF93C9
:101130001F92CDB7DEB76983DC01ED91FC9102808F
:10114000F381E02D41E050E0BE016F5F7F4F0995D4
:101150000F90DF91CF910895FC019485FB01848568
:10116000981303C081E0943008F080E00895CF9395
:10117000DF931F92CDB7DEB76983DC01ED91FC915F
:101180000280F381E02D41E050E0BE016F5F7F4FB0
:1011900009950F90DF91CF9108950895FF920F93D5
:1011A0001F93CF93DF93EB01FC01178A168A2A81E4
:1011B000211109C02B81211106C02C81211103C0EE
:1011C0002D81222301F141155105E9F08A01FC012D
:1011D000F08C80E591E00E945C02AE014E5F5F4FB3
:1011E00024E030E06CE070E08F2D0E943E08B801F2
:1011F0008F2D0E944F0881E090E0DF91CF911F91E9
:101200000F91FF90089580E0F7CFFC0184859585CC
:101210000895FC018489958908952BEC31E0FC0147
:1012200031832083FB014089518962897389FC01E4
:1012300042835383648375830895DC01ED91FC91AF
:10124000048CF58DE02D099490E080E008958EE007
:101250000E946503BC01990F880B990B0E945C33B7
:1012600020E030E040EA50E40E94BB3320E030E070
:1012700040E85AE30E94BB332AE037ED43E25CE3E7
:101280000E9413350895CF9380E390E00E944005BB
:1012900086EF93E00E949604892BD1F386EF93E0CA
:1012A0000E947404C82F8093A40286EF93E00E94EA
:1012B0009604892BD1F386EF93E00E94740420E01A
:1012C0003C2FA901482BCA01CF910895FC019485B8
:1012D000992369F080819181DC01ED91FC91068870
:1012E000F789E02D099591E0811101C090E0892FE7
:1012F0000895DC011C961C921C978D919C91DC0139
:10130000ED91FC910488F589E02D0994FC01768724
:1013100065870895DC01ED91FC9102A0F3A1E02D19
:10132000099591E089270895862F089581E0862701
:10133000089521E0FC018485843008F020E0822FAC
:10134000089508950F931F93CF938C01C62F0E9489
:1013500050066C2F6460C8010E9450066C2F6B7F92
:10136000C8010E94500683EC90E00197F1F7CF91FD
:101370001F910F9108950F931F93CF93DF938C01CB
:10138000D62FC42F607F642B0E94A20980E1D89FD2
:10139000B00111246C2BC801DF91CF911F910F91E7
:1013A0000C94A209CF93DF93CDB7DEB728970FB681
:1013B000F894DEBF0FBECDBF98E0EDE2F1E0DE01B4
:1013C000119601900D929A95E1F79091DD04961790
:1013D00008F46FEF262F30E0220F331F41E050E07A
:1013E0004C0F5D1F240F351FF9016081680F606885
:1013F00040E085ED94E028960FB6F894DEBF0FBE6E
:10140000CDBFDF91CF910C94BB0941E00E94BB0995
:1014100081E090E00895FB0101900020E9F7319709
:10142000AF01461B570BDC01ED91FC910280F3816B
:10143000E02D0994CF93DF930E942505EC016DEC1C
:1014400071E086EF93E00E940B0A8C0F9D1FDF91E5
:10145000CF9108958F929F92AF92BF92EF92FF9299
:101460000F931F93CF93DF93CDB7DEB7A1970FB63E
:10147000F894DEBF0FBECDBF7C01FA01CB0119A2EB
:10148000223008F42AE08E010F5D1F4F822E912C2E
:10149000B12CA12CBF01A50194010E94E234F901F5
:1014A000CA016A300CF5605DD8016E938D01232B63
:1014B000242B252B79F790E080E0109721F0BD01D7
:1014C000C7010E940B0AA1960FB6F894DEBF0FBEAB
:1014D000CDBFDF91CF911F910F91FF90EF90BF9003
:1014E000AF909F908F900895695CDECF462F50E0BB
:1014F00070E060E02AE00C942A0A8F929F92AF92EB
:10150000BF92CF92DF92EF92FF920F931F93CF93F0
:10151000DF937C018B014C0182E0880E911C570106
:10152000E5E0AE0EB11CD0E0C0E0F40161914F01E6
:10153000C8010E94760A6C016EE2C8010E94310463
:101540008C0D9D1DC80FD91F8A149B0471F7F701DC
:101550006581C8010E94760A8C0F9D1FDF91CF9193
:101560001F910F91FF90EF90DF90CF90BF90AF90C1
:101570009F908F900895CF93DF93AC0170E060E06F
:101580002AE086EF93E00E942A0AEC016DEC71E0FC
:1015900086EF93E00E940B0A8C0F9D1FDF91CF9185
:1015A00008956BE586EF93E00E9431040E94D20318
:1015B000AB01BC012AE086EF93E00E942A0A82E692
:1015C00091E00C9425056115710511F00C940B0A3E
:1015D00090E080E00895FB01808191810E9483303A
:1015E000892B91F081E090E00E94400581E090E03D
:1015F0000E94400561E087E00E94D20960ED71E041
:1016000085ED94E00C94E30A81E090E00E944005AF
:1016100090E080E00E94400561E087E00E94D209EE
:101620006AED71E0EDCFFB01808191810E948330F2
:10163000892B91F090E080E00E94400581E090E0ED
:101640000E94400561E087E00E94D20964EE71E0EB
:1016500085ED94E00C94E30A90E080E00E94400560
:1016600090E080E00E94400561E087E00E94D2099E
:101670006EEE71E0EDCFFB01808191810E9483309D
:10168000892B71F061E085E00E949E0260E087E0B6
:101690000E94D20968EF71E085ED94E00C94E30AB2
:1016A00060E085E00E949E0260E087E00E94D2092F
:1016B00062E072E0F1CFFB01808191810E94833072
:1016C000892B71F061E084E00E949E0260E087E077
:1016D0000E94D2096CE072E085ED94E00C94E30A7C
:1016E00060E084E00E949E0260E087E00E94D209F0
:1016F00067E172E0F1CF0C94562FAF92BF92CF9278
:10170000DF92EF92FF920F931F93CF93DF9300D05E
:1017100000D0CDB7DEB78C016B017A018091F50363
:101720008333E9F45B016801C40ED51EC016D106EF
:10173000A9F10E945B078FE00E946607812F0E943B
:101740006607802F0E9466070F5F1F4F80E00E9490
:101750006607F50181935F010E945107E7CF84334B
:1017600069F50E945B0719830A838F2D8F778B831E
:10177000EC8264E070E0CE0101960E943707A70179
:1017800070E060E0C6010E947A36E114F10421F0B5
:10179000B701C6010E9437070E945107C7010F9089
:1017A0000F900F900F90DF91CF911F910F91FF90AD
:1017B000EF90DF90CF90BF90AF9008950E945B07AD
:1017C0000F3F110509F030F419820A831B8263E090
:1017D00070E0D1CF17FD0BC019820A8333E0169554
:1017E00007953A95E1F7007E08600B83F0CFC801BA
:1017F00026E0969587952A95E1F7807E19830A83DE
:101800000115104C18F480618B83E1CF8861FCCF07
:10181000CF93DF931F92CDB7DEB720915B0330E00B
:10182000322F2227260F371F90E0982F882741E07C
:1018300050E0BE016F5F7F4F820F931F0E947D0BB0
:1018400089810F90DF91CF910895CF93C82F462FB4
:1018500061E070E00E94790861E070E08C2F0E94E6
:10186000080C8111F9CFCF910895CF93C82F80E54F
:1018700091E00E945C0268E070E08C2FCF910C94A4
:10188000250CCF93C82F80E591E00E945C0260E1B7
:1018900070E08C2FCF910C94250CCF93DF93EC014B
:1018A000888D843020F40E94410C84E0888FDF9181
:1018B000CF910895CF93C82F80E591E00E945C02FC
:1018C00063E070E08C2FCF910C94080CCF93DF93E2
:1018D000EC018C858430D0F40E945A0C843189F05C
:1018E000882379F0883169F021E08C3159F4E8815E
:1018F000F9810084F185E02DCE01099521E0892B45
:1019000009F420E0822FDF91CF91089580E0FBCF92
:10191000CF92DF92EF92FF92CF93DF93EC018C8511
:10192000843068F40E94350C0E94D2036B017C0164
:101930008C850E945A0C811109C084E08C87DF914C
:10194000CF91FF90EF90DF90CF90089561E070E02D
:1019500080E090E00E949F030E94D203AB01BC0193
:101960004C195D096E097F098D859E85B0E0A0E068
:10197000481759076A077B07D8F28C850E94410CEB
:10198000DCCFCF93FC01C08D80E591E00E945C022A
:1019900060E270E08C2F0E94250C62E070E08C2FDA
:1019A0000E94080C84FD16C062E070E08C2F0E943B
:1019B000080C83FF0AC048E162E070E08C2F0E94AF
:1019C000790880E090E0CF91089580E591E00E9451
:1019D0005C02E3CF40E162E070E08C2F0E94790866
:1019E00081E0F0CFCF93DF931F92CDB7DEB741E018
:1019F00050E0BE016F5F7F4F90E080E00E947D0B62
:101A000089810F90DF91CF910895CF93DF93C4E147
:101A1000D0E00E94F20C882361F061E070E080E089
:101A200090E00E949F032197A1F780E0DF91CF9182
:101A3000089581E0FBCF1F93CF93DF931F92CDB723
:101A4000DEB7182F80E591E00E945C02812F0E9492
:101A5000300827E0129FF0011124E752FC4F228149
:101A60003381377041E050E0BE016F5F7F4F820FDE
:101A7000931F0E947D0B89810F90DF91CF911F9161
:101A80000895FC01808D843040F4218D328D232B0C
:101A900021F00E941B0D90E008958FEF9FEF0895B5
:101AA000CF93DF93FC012485243028F08FEF9FEF44
:101AB000DF91CF910895EC010190F081E02D008439
:101AC000F185E02D0995892B89F38C850E941B0DEA
:101AD00090E0EECFDA01E0915B03F0E0FE2FEE271D
:101AE000E60FF71F90E0982F8827A901BD018E0F00
:101AF0009F1F0C947D0B8F929F92AF92BF92CF92BB
:101B0000DF92EF92FF921F93CF93DF93CDB7DEB7B3
:101B10002C970FB6F894DEBF0FBECDBF2091F50312
:101B200014E0222339F16B017C0180E591E00E94F1
:101B30005C025E0127E0A20EB11C450110E063E0EB
:101B400070E0812F0E94080CF40181934F018823DB
:101B500049F11F5F143099F710E0F50181915F01A1
:101B60008D31D9F08831C9F08A518230B0F01F5FD1
:101B7000143099F7812F2C960FB6F894DEBF0FBE64
:101B8000CDBFDF91CF911F91FF90EF90DF90CF906D
:101B9000BF90AF909F908F90089560E170E0812F8B
:101BA0000E94250CA12EB12C83EE93E00197F1F752
:101BB00042E870E060E0812F0E9479084FEF62E018
:101BC00070E0812F0E947908B601C114D10491F40C
:101BD000809121019091220101968115F0EC9F07DF
:101BE00008F45CC09093220180932101609121014F
:101BF00070912201812F0E94640886E0E5E3F1E004
:101C0000DE01119601900D928A95E1F7F70183812B
:101C10008F778C8384818D8385818E83A7014E5F2E
:101C20005F4F24E030E06CE070E0812F0E943E08BE
:101C3000B601812F0E944F0826E030E0AE014F5FD1
:101C40005F4F66E070E0812F0E943E0861E070E027
:101C5000812F0E94250C27E02A9DC0012B9D900D0D
:101C600011249C0127523C4F7901F9011182108205
:101C700022E030E0AE01455F5F4F68E270E0812F07
:101C80000E946A0D8B859C85982789279827F701E4
:101C9000938382831682158214826CCF80E090EC4D
:101CA000A1CFCF92DF92EF92FF920F931F93CF932A
:101CB000DF9300D000D000D0CDB7DEB78C016B0130
:101CC0007A01FC01808D843010F40E94410C8BEC71
:101CD00091E09A838983F60182819381A481B58101
:101CE0008B839C83AD83BE83B701CE0101960E9496
:101CF0007B0DF801808F8430A0F4F586E486128E87
:101D0000118E81E026960FB6F894DEBF0FBECDBFD0
:101D1000DF91CF911F910F91FF90EF90DF90CF90C7
:101D2000089580E0EFCFAF92BF92CF92DF92EF9213
:101D3000FF920F931F93CF93DF9300D000D000D07A
:101D4000CDB7DEB7082F6B0180E591E00E945C0201
:101D50009E012F5F3F4F7901590110E063E070E071
:101D6000812F0E94080CF50181935F01882341F1C6
:101D70001F5F143099F710E0F70181917F018D31D9
:101D8000D1F08831C1F08A518230A8F01F5F143041
:101D900099F7812F26960FB6F894DEBF0FBECDBF00
:101DA000DF91CF911F910F91FF90EF90DF90CF9037
:101DB000BF90AF90089560E170E0812F0E94250CE4
:101DC000E12EF12C83EE93E00197F1F7402F70E0C4
:101DD00060E0812F0E9479084FEF62E070E0812F70
:101DE0000E947908B601CD2889F480912101909153
:101DF000220101968115F0EC9F0798F19093220142
:101E0000809321016091210170912201812F0E9414
:101E1000640861E070E0812F0E94250C27E02E9D70
:101E2000C0012F9D900D11249C0127523C4F790138
:101E3000F9011182108222E030E0AE014B5F5F4F6A
:101E400068E270E0812F0E946A0D8D819E81982743
:101E500089279827F701938382831682158214823B
:101E600098CF80E090ECCACFCF92DF92EF92FF92B2
:101E70001F93CF93DF93EC017B016A018C85843043
:101E800048F40E945A0C882319F08C850E94350C66
:101E900084E08C87F70182819381A481B5810097CA
:101EA000A105B10551F490E080E0DF91CF911F9141
:101EB000FF90EF90DF90CF9008958F3F9F4FAF4FEF
:101EC000BF4F89F38091F503811103C084E08C87B3
:101ED000EACF70E060E081E20E94930E182F8C87B9
:101EE000843008F780E591E00E945C02A7014E5F14
:101EF0005F4F24E030E06CE070E0812F0E943E08EC
:101F0000B601812F0E944F0864E070E0812F0E948B
:101F1000250C0E94D2036B017C018C850E945A0C17
:101F2000873109F18C31F9F0882309F4BCCF0E9484
:101F3000D203AB01BC014C195D096E097F098D8587
:101F40009E85B0E0A0E084179507A607B70738F094
:101F500061E070E080E090E00E949F03DECF8C851E
:101F60000E94410CB3CF81E090E09FCF0F931F936D
:101F7000CF93DF93EC018B01888D843010F40E94A5
:101F8000410C8091F503811107C094E0988FDF9197
:101F9000CF911F910F910895B80182E00E94930E96
:101FA000888F843030F41D870C871A8E198E81E05B
:101FB000EECF80E0ECCF7F928F929F92AF92BF9254
:101FC000CF92DF92EF92FF920F931F93CF93DF9305
:101FD00000D0CDB7DEB7782E8B014A01590122E03F
:101FE00030E0AE014F5F5F4F64E270E00E946A0D27
:101FF000E980FA80FE24EF24FE24E00EF11E970112
:1020000037704091F503072D10E0433309F042C0CB
:10201000085F1F4F102F0027110F110F110FC9015B
:10202000800F911F4733C9F1A9014A0D5B1D413053
:10203000584098F160E078E06B01C21AD30AA6011B
:10204000B4010E946D07A5014C195D09B4016C0D26
:102050007D1DC8010E946D07EA0CFB1CF982EA8213
:1020600022E030E0AE014F5F5F4F64E270E0872D09
:102070000E943E080F900F90DF91CF911F910F911A
:10208000FF90EF90DF90CF90BF90AF909F908F9098
:102090007F900895005F1F4FBDCFA501B401DACF37
:1020A000EF92FF921F93CF93DF9300D0CDB7DEB7AF
:1020B000182F22E030E0AE014F5F5F4F60E270E02A
:1020C0000E946A0DE980FA80FE24EF24FE2422E0BB
:1020D00030E0AE014F5F5F4F60E270E0812F0E9401
:1020E0006A0D89819A81982789279827E816F90629
:1020F00089F487E0189FF0011124E752FC4FF58224
:10210000E482C7010F900F90DF91CF911F91FF9054
:10211000EF9008957C01DBCF1F93CF93DF93182FAF
:1021200080E591E00E945C02812F0E945010EC013A
:1021300063E070E0812F0E94080C873121F08C3120
:1021400011F0D0E0C0E0CE01DF91CF911F91089552
:10215000CF93DF93EC018C85843060F40E945A0C9D
:10216000873111F08C3131F48C850E948C108115EF
:10217000984088F3DF91CF910895FC0184858430E5
:1021800010F40C948C1090E080E008959F92AF9230
:10219000BF92CF92DF92EF92FF920F931F93CF9354
:1021A000DF938C015B01942EE52EFC01C688D78855
:1021B000F08C80E591E00E945C028F2D0E9450100F
:1021C000C92DDE2D8C179D0708F4EC019E01A50199
:1021D000B6018F2D0E94DB0FF801868997898C0F3D
:1021E0009D1F978B868BCE01DF91CF911F910F9111
:1021F000FF90EF90DF90CF90BF90AF909F900895A9
:102200008F929F92AF92BF92CF92DF92EF92FF9206
:102210000F931F93CF936C015B018A01FC01C4856E
:10222000C430F0F57A014130584018F0E12C88E0D4
:10223000F82E80E591E00E945C028C2F0E945010E5
:102240004C0163E070E08C2F0E94080C873111F084
:102250008C3149F58E149F0460F380E591E00E9473
:102260005C029701A50170E060E08C2F0E94DB0FFB
:1022700060E270E08C2F0E94250C62E070E08C2FF1
:102280000E94080C84FD17C063E070E08C2F0E9450
:10229000080C81110BC081E090E0F60193838283EA
:1022A00010E000E010C0F12CE12CD7CF80E591E0E8
:1022B0000E945C02E2CF40E162E070E08C2F0E945D
:1022C0007908EF2841F3C801CF911F910F91FF903A
:1022D000EF90DF90CF90BF90AF909F908F90089538
:1022E000FF920F931F93CF93DF9300D0CDB7DEB74C
:1022F000F82E22E030E0AE014F5F5F4F66E270E003
:102300000E946A0D09811A8110270127102722E0F7
:1023100030E0AE014F5F5F4F66E270E08F2D0E94AC
:102320006A0D89819A8198278927982708171907A4
:1023300049F4C8010F900F90DF91CF911F910F9139
:10234000FF9008958C01E3CF1F93CF93DF93182F55
:1023500087E0189FE0011124C752DC4F88819981E2
:10236000009761F480E591E00E945C02812F0E9459
:1023700070112E81821B910999838883DF91CF91FF
:102380001F910895FC018485843010F40C94A411ED
:1023900090E080E008954F925F927F928F929F929B
:1023A000AF92BF92CF92DF92EF92FF920F931F9363
:1023B000CF93DF9300D0CDB7DEB7782E6B014A0103
:1023C000A82EB12C27E0829FC0011124FC01E75206
:1023D000FC4F7F010081118180E591E00E945C0249
:1023E0000815190554F4872D0E947011F7012681F4
:1023F0008C01021B1109118300830115110529F5B8
:1024000063E070E0872D0E94080C843159F0882326
:1024100049F001E010E08C3111F410E000E011957A
:1024200001951109C8010F900F90DF91CF911F9175
:102430000F91FF90EF90DF90CF90BF90AF909F9063
:102440008F907F905F904F900895801691060CF4C6
:10245000840187E08A9DF0018B9DF00D1124E752E5
:10246000FC4FE280F380C114D10451F12701F7E061
:102470005F22872D0E943008840D951D2091F50361
:10248000273309F453C09801240D351D21303840FD
:1024900008F44CC020E038E0490184189508A401F4
:1024A000B6010E947D0B2601480C591C6801C81812
:1024B000D908872D0E943008A601B2010E947D0B29
:1024C000E00EF11E87E08A9DF0018B9DF00D112436
:1024D000E752FC4FF382E28220813181201B310BD5
:1024E000318320838681800F912F911D8A3F910532
:1024F00010F4232BF1F487E08A9DF0018B9DF00D01
:102500001124E752FC4F1682F982EA8222E030E081
:10251000AE014F5F5F4F68E270E0872D0E943E087A
:1025200060E470E0872D0E94250C7CCFA801B601E5
:10253000C5CF868377CFCF93DF93FC01218D328D7A
:102540002115310529F48FEF9FEFDF91CF91089589
:10255000EC01808D4217530708F0A9010E94CB11AE
:102560001816190684F7298D3A8D281B390B3A8FD6
:10257000298FEBCF0F931F93CF93DF931F92CDB78C
:10258000DEB7FC01218D328D232B41F48FEF9FEFBD
:102590000F90DF91CF911F910F9108958C0141E031
:1025A00050E0BE016F5F7F4FFC01808D0E94CB1118
:1025B000181619065CF7F801818D928D0197928F9C
:1025C000818F898190E0E4CFCF93DF931F92CDB7C5
:1025D000DEB741E050E0BE016F5F7F4FFC018485B4
:1025E0000E94CB111816190634F4898190E00F90DF
:1025F000DF91CF9108958FEF9FEFF9CFFC01848594
:10260000843010F40C94CB1190E080E008950F9387
:102610001F93CF93DF9300D0CDB7DEB7FC012485A5
:102620002430E0F48C0180E591E00E945C0222E01D
:1026300030E0AE014F5F5F4F60E170E0F8018485EC
:102640000E946A0D89819A819827892798270F907F
:102650000F90DF91CF911F910F91089590E080E04E
:10266000F6CF0F931F93CF93DF9300D0CDB7DEB794
:10267000FC0124852430E0F48C0180E591E00E9487
:102680005C0222E030E0AE014F5F5F4F64E070E03B
:10269000F80184850E946A0D89819A81982789278B
:1026A00098270F900F90DF91CF911F910F91089570
:1026B00090E080E0F6CFDC018BEC91E08D939D9370
:1026C00084E0FB0101900D928A95E1F70895EF9265
:1026D000FF920F931F93CF93DF9300D000D0CDB71D
:1026E000DEB78C017B01FB0184858430A8F08BEC84
:1026F00091E0F80191838083128213821482158203
:10270000C8010F900F900F900F90DF91CF911F9104
:102710000F91FF90EF90089580E591E00E945C0298
:1027200024E030E0AE014F5F5F4F6CE070E0F701F6
:1027300084850E946A0DBE016F5F7F4FC8010E94B1
:102740005B13DECF0F931F93CF93DF93CDB7DEB72D
:1027500028970FB6F894DEBF0FBECDBF8C01D8010D
:1027600059964D915C915A974115510551F0ED9153
:10277000FC91048CF58DE02D70E060E0C8010995B6
:10278000EECFF801808D0E94A411892BB1F148E0B1
:1027900050E0BE016F5F7F4FD80158968C910E9428
:1027A000CB1118161906F4F4D801509684E0FE01F6
:1027B000319601900D928A95E1F78D8190E0982FE6
:1027C00088272E81820F911DF801958B848B8F8134
:1027D000282F30E0322F22278885820F932F911DDA
:1027E000928F818F28960FB6F894DEBF0FBECDBFB3
:1027F000DF91CF911F910F91089590E080E0F2CF8B
:102800004F925F926F927F928F929F92AF92BF9200
:10281000CF92DF92EF92FF920F931F93CF93DF93AC
:10282000CDB7DEB763970FB6F894DEBF0FBECDBF4E
:102830007C016B013A01FB0120E090E080E06AE05E
:102840003191332309F461C040ED430F4A3008F061
:102850004DC0689FA001699F500D1124CA01C09707
:10286000830F911D37FD9A958F3F910549F340F3F2
:10287000F70142815381648175818091CB049091ED
:10288000CC04A091CD04B091CE04481759076A0733
:102890007B0709F40DC28701085F1F4F0E94D20316
:1028A0006F7077277C5FC8010E94B60F813009F0F6
:1028B00004C28BEC91E09A838983F7018281938132
:1028C000A481B5818B839C83AD83BE8345E350E0B7
:1028D000BE016F5F7F4FC8010E94CE08892BA9F50A
:1028E000D12CC12CC8010E944D0C17C03E3209F0FA
:1028F000BFCF233009F4BCCFD301A20FB11D129674
:102900008C932F5F90E080E09BCF233009F0B0CF15
:10291000F3018583CC24C394D12CC60163960FB6F2
:10292000F894DEBF0FBECDBFDF91CF911F910F9105
:10293000FF90EF90DF90CF90BF90AF909F908F90DF
:102940007F906F905F904F9008950E94D203F7019F
:102950007783668342E050E0B7016A5F7F4FC8012A
:102960000E94C61081E090E09A83898342E050E0A3
:10297000BE016F5F7F4FC8010E94C61080E091E0EA
:102980009A83898342E050E0BE016F5F7F4FC801A8
:102990000E94C6101A82198242E050E0BE016F5FA9
:1029A0007F4FC8010E94C61042E050E0BE016F5F39
:1029B0007F4FC8010E94C61042E050E0BE016F5F29
:1029C0007F4FC8010E94C6105601F60180818823FE
:1029D00001F16501F60181912F01882311F08E32FA
:1029E000B1F446018A189B081814190474F48D86F2
:1029F00041E050E0BE01635F7F4FC8010E94C610F6
:102A0000A401B501C8010E94C6105201DECF6201C7
:102A1000E1CF1D8641E050E0BE01635F7F4FC801FA
:102A20000E94C610C12CDD24D394DA82C98242E010
:102A300050E0BE016F5F7F4FC8010E94C610DA826E
:102A4000C98242E050E0BE016F5F7F4FC8010E9423
:102A5000C610C8010E94C10C892B09F441CFF3E0D4
:102A6000AF2EB12C230122E0420E511CD4C0F7013D
:102A70004281538164817581808D918DA28DB38D4A
:102A8000481759076A077B0709F008C1848D958D9F
:102A9000C59709F003C181A192A15DEFC52EDD2488
:102AA000DA940C970CF4ADC04CE050E0BE016F5FBF
:102AB0007F4FC8010E949B128B819C819827892798
:102AC00098279A8B898BF7014681578129813A8112
:102AD0004217530709F0E7C097FFE5C08F70927067
:102AE0003BEFC32EDD24DA94892B09F08AC06F8076
:102AF00078847624672476242AEFC22EDD24DA94A3
:102B00006114710409F47DC0D12CC12C8D819E818A
:102B1000982789279827C816D906F8F441E050E08D
:102B2000BE01635F7F4FC8010E949B124D85442305
:102B300031F050E070E060E0C8010E949B128D858A
:102B40008111ECCF44E050E070E060E0C8010E94E9
:102B50009B12FFEFCF1ADF0AD9CF912C812C41E0D5
:102B600050E0BE016D5E7F4FC8010E949B124B89F1
:102B7000842F807C09F06CC0442331F050E070E079
:102B800060E0C8010E949B128B898111E8CF42E06E
:102B900050E0BE01615F7F4FC8010E949B1242E07E
:102BA00050E0BE01635F7F4FC8010E949B1244E06A
:102BB00050E070E060E0C8010E949B1242E050E0EB
:102BC000BE016F5E7F4FC8010E949B128F8598895E
:102BD00049895A898115914009F043C0CD84DE842A
:102BE000DC24CD24DC2481E0C816D104D1F54115C4
:102BF000544009F04AC044E050E0B201C8010E94CC
:102C00009B1221E0A21AB10809F46CCEFFEFCF1697
:102C1000DF0609F067CE0E94D2033B014C01C801D8
:102C20000E94A213181619060CF421CF0E94D20399
:102C300066197709880999096938734181059105F1
:102C400048F562E370E080E090E00E949F03E7CFE8
:102C500041E050E070E060E0C8010E949B121B8AD6
:102C600093CF54274527542770E060E0C8010E94A5
:102C70009B12FFEF8F1A9F0A6814790409F06FCF37
:102C800096EFC92EDD24DA94BCCFE7EFCE2EDD24FB
:102C9000DA94B7CFCC24CA94DC2CB3CF6EEFC62E17
:102CA000DD24DA94AECF4CEFC42EDD24DA94A9CF24
:102CB0008EEFC82EDD24DA9430CED12CC12C2DCE4F
:102CC000CF92DF92EF92FF920F931F93CF93DF93F8
:102CD000CDB7DEB7AF970FB6F894DEBF0FBECDBF4E
:102CE0007C016A010BEC11E01A8309831C861B86A8
:102CF00088EE93E0A0E0B0E08D879E87AF87B88B29
:102D00008FE391E09A878987188F0F8B198E1A8E1F
:102D10001B8E1C8E84E089A31BA70AA71CA61DA6D8
:102D20001EA61FA68091BF049091C004A091C1046B
:102D3000B091C2048EA39FA3A8A7B9A78B839C833D
:102D4000AD83BE8318861F82AE01465D5F4FCE0104
:102D500001960E94001481309105B1F4D701ED91E4
:102D6000FC910488F589E02D1DA30CA38CA59DA5DD
:102D7000AEA5BFA58EA39FA3A8A7B9A7A601BE0114
:102D80006C5D7F4FC7010995AF960FB6F894DEBF13
:102D90000FBECDBFDF91CF911F910F91FF90EF90AC
:102DA000DF90CF900895CF92DF92EF92FF920F9332
:102DB0001F93CF93DF93CDB7DEB7AF970FB6F894DD
:102DC000DEBF0FBECDBF8C016B017A018BEC91E0B1
:102DD0009A8389831B821C821D821E821C861B860D
:102DE00048EE53E060E070E04D875E876F87788B38
:102DF0002FE331E03A872987988F8F8B198E1A8EAF
:102E00001B8E1C8E24E029A39BA78AA71CA61DA6A7
:102E10001EA61FA6D8011C968C91843060F40E94D7
:102E20005A0C882321F0F80184850E94350C84E037
:102E3000D8011C968C938091BF049091C004A091FE
:102E4000C104B091C2048EA39FA3A8A7B9A78B8386
:102E50009C83AD83BE8318861F82AE01465D5F4FA3
:102E6000B601CE0101960E9400140097C1F0D8016E
:102E7000ED91FC910684F785E02D8BEC91E09DA30C
:102E80008CA38CA59DA5AEA5BFA58EA39FA3A8A727
:102E9000B9A7A701BE016C5D7F4FC8010995AF9628
:102EA0000FB6F894DEBF0FBECDBFDF91CF911F915B
:102EB0000F91FF90EF90DF90CF9008957F928F92C7
:102EC0009F92AF92BF92CF92DF92EF92FF920F93B9
:102ED0001F93CF93DF93CDB7DEB7A6970FB6F894C5
:102EE000DEBF0FBECDBF8C01762E942E852E20E244
:102EF000A22ECE0101967C01DC01EA2D1D92EA95FD
:102F0000E9F76801F3E4CF0ED11C8BEC91E09AA3B2
:102F100089A38FEF8BA38CA38DA38EA343E450E0F2
:102F2000BE016F5D7F4FC6010E94CE08019609F475
:102F3000BFC081E089838A8386E0B82EBB821C8271
:102F4000D80114966D917D918D919C9117970E9457
:102F50009A356D837E838F83988789869A8680E8E9
:102F600090E09C878B874CE150E0B701C6010E943E
:102F7000C610FE0137968AE1DF011D928A95E9F7B6
:102F80004801B8E08B0E911CF401D70101900D921D
:102F9000BA94E1F740E150E0B701C6010E94C610C3
:102FA000F7011192AA94E9F796E0A92EB12C40E21C
:102FB00050E0B701C6010E94C610F1E0AF1AB10897
:102FC000B1F783E6898392E89A8393E59B838C83A8
:102FD00085E38D8381E08E837F829DE3988797E0F0
:102FE00099878A8786E0F401DE011B9601900D9295
:102FF0008A95E1F78CE0898B8A8B62E272E0CE01E0
:1030000043960E948A36D8011B966C91CE01499650
:103010000E945F02F8016485CE014B960E945F0218
:10302000D8011D966C91CE014D960E945F024EE133
:1030300050E0B701C6010E94C610B3E07B121EC06B
:1030400082E3898384E08A83F80196859B83978550
:103050009C8390899D8391899E8396E39F83888733
:10306000828D8987838D8A87848D8B87858D8C87D8
:103070004CE050E0B701C6010E94C61087E3898387
:1030800086E08A8391E09B8393E09C838D838FE02D
:103090008E838AE38F838BE388878FEF898749E06C
:1030A00050E0B701C6010E94C610C6010E94C10CC3
:1030B000A6960FB6F894DEBF0FBECDBFDF91CF91BD
:1030C0001F910F91FF90EF90DF90CF90BF90AF9046
:1030D0009F908F907F9008950F931F93CF93DF93CE
:1030E000EC01FB0101900020E9F78F01061B170B93
:1030F0008A819B81A801480F591F2C813D8124178B
:10310000350768F028813981A801820F931F0E943A
:1031100071364A815B81400F511F5B834A83DF9187
:10312000CF911F910F9108950F931F93CF93DF932A
:10313000EC0188819981009759F02A813B812617FB
:10314000370730F081E0DF91CF911F910F91089503
:103150008B016F5F7F4F0E94A735009759F09983CD
:1031600088831B830A832C813D81232B59F7FC0123
:103170001082E8CF80E0E7CF85ED8093BC0080919E
:10318000310390913203A0913303B0913403079639
:10319000A11DB11D23E0B695A795979587952A9512
:1031A000D1F72091BC0024FD03C010922F03089595
:1031B0004091310350913203609133037091340395
:1031C000452B462B472B69F30097A105B10541F02C
:1031D0002AE22A95F1F700C00197A109B109E1CFD0
:1031E000809130030C94AA053F924F925F926F92A8
:1031F0007F928F929F92AF92BF92CF92DF92EF9287
:10320000FF920F931F93CF93DF93CDB7DEB7EA976B
:103210000FB6F894DEBF0FBECDBF7C012A013B0183
:1032200069010E94D2034B015C0187010D5B1F4FB6
:10323000C8010E94A213181619069CF00E94D2031E
:10324000681979098A099B0946165706680679069E
:1032500008F466C162E370E080E090E00E949F03A2
:10326000E7CF42E250E0BE016F5F7F4FC8010E948E
:103270009B1289818230D1F0312C832DEA960FB6D2
:10328000F894DEBF0FBECDBFDF91CF911F910F919C
:10329000FF90EF90DF90CF90BF90AF909F908F9076
:1032A0007F906F905F904F903F900895F8018489D0
:1032B00095898334910501F76D817E818F81988591
:1032C0000E949A354B015C01F60180829182A282B4
:1032D000B38246E050E0B701685F7F4FCE014D9664
:1032E0000E946436892B41F6F70180819181A28189
:1032F000B38188169906AA06BB0608F4BDCF84815F
:103300009581A681B78188159905AA05BB0508F4A2
:10331000B3CF89899A89AB89BC8986879787A08B27
:10332000B18B4EEC50E070E060E0C8010E949B124F
:10333000312CC701829698AB8FA7F701B696FAABEE
:10334000E9AB08969CAB8BAB67019AE1C90ED11C27
:10335000BD96FEABEDABC701429698AF8FABFD9724
:10336000FAAFE9AF4701FEE18F0E911CF801818DA4
:10337000928D181619060CF080CFC8010E94BA125F
:103380008333910509F4B2C014F58130910509F435
:1033900064C044F4892B51F3C8010E94BA12AC01F5
:1033A000552775C08330910509F462C00697A1F7CF
:1033B000C8010E94BA12B82E44E050E0B401C8011E
:1033C0000E949B12EB2DE450FF0BAF0160C08A33CB
:1033D000910509F45FC084F585339105B1F1C69775
:1033E000D9F6C8010E94BA125C01B601CE018996D5
:1033F0000E945B138BA59CA5ADA5BEA5892B8A2B2E
:103400008B2BB1F0EDA9FEA94080518062807380C2
:10341000B601CE0183960E945B138DA19EA1AFA140
:10342000B8A5A501481659066A067B0609F0B8CF6B
:1034300044E050E0B60118C08B33910509F440C058
:103440008F3F910509F492CFA7CFC8010E94BA120D
:10345000C8010E94BA12382E89CFC8010E94BA1240
:1034600044E050E06FA978ADC8010E949B127ECF66
:10347000C8010E94BA12B82E44E050E069AD7AAD9E
:10348000C8010E949B128B2D8450990BAC0170E0F7
:1034900060E0EACFC8010E94BA1244E050E069A996
:1034A0007AA9C8010E949B12F70166A177A180A5A5
:1034B00091A50E949A3566A377A380A791A756CFBE
:1034C000C8010E94BA1244E050E06BA97CA9C8016F
:1034D0000E949B12F70162A573A584A595A50E9481
:1034E0009A3562A773A784A795A740CFC8010E9409
:1034F000BA1244E050E06FA578A9C8010E949B125F
:10350000F70162A173A184A195A10E949A3562A3DB
:1035100073A384A395A366A777A780AB91AB26CFAF
:1035200033243A94AACE0F931F93CF93DF93CDB752
:10353000DEB762970FB6F894DEBF0FBECDBF8C0129
:10354000CB014AE0BE016F5F7F4F0E94D130BE01C8
:103550006F5F7F4FC8010E946C1862960FB6F89497
:10356000DEBF0FBECDBFDF91CF911F910F910895A8
:103570003F924F925F926F927F928F929F92AF9203
:10358000BF92CF92DF92EF92FF920F931F93CF9350
:10359000DF93CDB7DEB7A1970FB6F894DEBF0FBEAD
:1035A000CDBF5C010DB71EB719A308A360E070E0A2
:1035B000CB010E949F03D50157968D919C915897FE
:1035C000912C029709F4BFC356968C9156978F5F42
:1035D00056968C93569754962D913C91232B19F027
:1035E00099249394A9C38330D8F7F5018081918100
:1035F0000E946609882309F47FC38E010F5F1F4F65
:103600003801D501ED91FC9180819181DC01ED9132
:10361000FC910084F185E02D0995181619060CF02F
:103620006BC3D501ED91FC9145E050E0BE01695EB0
:103630007F4F808191810E94E103009711F30597EC
:1036400009F074C0888D998D982789279827998FBC
:10365000888FEA8CFB8CFE24EF24FE24FB8EEA8EFE
:10366000892B09F463C08F89811173C00E94D20332
:10367000F50166837783808791872789308D8A8DCE
:103680009B8D232B09F061C0288D398D21303105A8
:1036900009F05BC089309105E1F1883C910519F092
:1036A000049709F047C00E94D10A8EEF92E00E9471
:1036B0002505D50116964D915D916D917C911997D7
:1036C0001E968D919D910D90BC91A02D481B590B7C
:1036D0006A0B7B0B2AE086EF93E00E942A0A89EFAF
:1036E00092E00E941A0AF50186819781A085B18532
:1036F00086879787A08BB18B01E010E0108F078B36
:10370000C5010E94552460E070E0CB010E949F0338
:1037100078CF0E94D10A8AE294E00E941A0A83E0DC
:1037200090E0D50158969C938E935797D5018D9133
:103730009C91FFC20E94D10A83E194E00E9425057A
:103740008A8D9B8D0E94BB0AF1CF059709F059CF56
:10375000EDCFB1E0EB16FB0690F00E94D10A82E0BB
:1037600094E00E9425058A8D9B8D0E94BB0AF5017D
:10377000108E178A808191810E94790942CF8DB67F
:103780009EB6C70101960DB71EB7081B190B0FB6E1
:10379000F8941EBF0FBE0DBF0F5F1F4FD501ED91F7
:1037A000FC91A701B801808191810E94E1038E15EF
:1037B0009F0509F07BC0EA8DFB8DE00FF11F1082A1
:1037C0000E94D203F50166837783808791878F8972
:1037D000813109F47CC2A0F58630F1F08F3009F414
:1037E000D7C0823099F5D50157968D919C91892B40
:1037F00099F40E94D10A8CEF93E00E941A0A01E02A
:1038000010E0F501108F078BC5010E94552460E080
:1038100070E0CB010E949F03488D598DD12CC12CA3
:10382000F12CE12C08EC10E030E020E060E0C50174
:103830000E940C200FB6F8949EBE0FBE8DBEE1CE46
:103840008D3189F258F4843109F4A2C0F501108E4B
:10385000178A808191810E947909ECCF893281F0A9
:103860008733A1F78A8D9B8D892B21F30E94D10A82
:1038700083EE93E00E942505C8010E942024DACF40
:1038800084819581892B39F480E490E00E94BA2EDE
:10389000F50195838483EA8CFB8CE00EF11E1A837C
:1038A0000983FC82EB820E151F0530F00FB6F894E9
:1038B0009EBE0FBE8DBE3ACF40E450E0B801D501A8
:1038C00014968D919C910E949136D5011496ED919C
:1038D000FC9117AEC3010E943324FC0180819181C9
:1038E00000E510E08E159F0570F489819A8100979C
:1038F00009F44AC02B813C818217930708F044C029
:103900000E94A1308B010E94D10A8CEE93E00E94AC
:103910002505D50114966D917C9186EF93E00E9468
:10392000E30A6AE386EF93E00E943104C8010E9433
:10393000BB0AF501808191810E947909D501ED9141
:10394000FC91119714968D919C9115979187808782
:103950001387028758961C921E9257970E94D20393
:10396000DC01CB0188589341A109B109F501828797
:103970009387A487B58786839783A087B187868737
:103980009787A08BB18B56CF60E070E0CB01BACFA8
:10399000888D998DD50155969C938E9354974A8C1A
:1039A0005B8C6801C40CD51C1D8F0C8FDF8ECE8EF6
:1039B0000C151D0508F013C1F801E080F180CE015F
:1039C0004C960E943324DC018D919C918C159D05B1
:1039D00008F005C18C8D9D8DFC012081213459F4A6
:1039E00001960E9483304EE0342E380E069744F044
:1039F00033243A9405C0CE014C960E944624382EBA
:103A0000F6E7EF16F2E7FF0609F406C138F531E6EE
:103A1000E31632E7F30609F4E6C044E6E41642E7AB
:103A2000F40609F478C050E7E5165DE6F50609F0FE
:103A300037C18C8D9D8D8C159D0508F0D0C0FC0183
:103A400020812134A9F501960E9483303EE0F32EB7
:103A5000F80E069794F1FF24FA942FC084E6E81636
:103A600087E7F80609F4A2C096E7E91697E7F90692
:103A700009F4E9C0A1E6EA16A7E7FA0609F010C1C1
:103A8000CE014C960E943324DC018D919C918C15C3
:103A90009D0508F0A4C061E0832D0E94CC02CE01F8
:103AA0004C960E944624BC01832D0E94080397C0B7
:103AB000CE014C960E944624F82ECE014C960E94D0
:103AC00033240C8D1D8D69E272E0C8010E9481369D
:103AD00060E0892B79F06CE272E0C8010E948136C7
:103AE000892B39F060E372E0C8010E948136892B8E
:103AF00049F461E08F2D0E94CC02CE014C960E94C9
:103B0000332497CF64E372E0C8010E948136892B89
:103B1000A1F762E0EFCF7A8A698A1C8A1B8A00E1EA
:103B200010E01E8B0D8B67E372E0CE0141960E9480
:103B30006C18032D10E0B801CE0141960E94931A33
:103B4000F801E25CFC4F8491F801E65DFC4FF490D3
:103B50000A5E1C4FF801049160E070E0002389F0D8
:103B600081110E947502E02FF0E0EE0FFF1FE45F6D
:103B7000FC4FA591B491EC91FE2261E070E009F454
:103B800060E0CE0141960E94931A0B891C89015076
:103B9000110929893A89D12CC12CF12CE12C50E052
:103BA00040E064E1C5010E940C2019C0CE014C9692
:103BB0000E943324DC018D919C918C159D0578F435
:103BC00061E0832D0E94CC02CE014C960E944624D7
:103BD00061E0892B09F460E0832D0E949E02F501CB
:103BE000158A148A27CE7A8A698A1C8A1B8AE0E1A0
:103BF000F0E0FE8BED8B6AE372E0CE0141960E940D
:103C00006C18632D70E0CE0141960E94931A832DAB
:103C10000E946503BC01B5CF3982BFE1B315F8F24C
:103C2000E32DF0E0EE0FFF1FEE5AFC4F259134918B
:103C300021153105A1F2E2E02B353E0781F2C301E7
:103C4000F9010995CCCFCE014C960E9433248C8D7E
:103C50009D8D9C01201B310B421A530A9A83898344
:103C60005C824B825E824D82398AFFE1F31508F453
:103C7000B6CFE32DF0E0EE0FFF1FEE56FC4F25917F
:103C800034912115310509F4AACF02E02A35300715
:103C900009F4A5CFB301CE014196F90109959FCF53
:103CA0000E94D10A82ED93E00E942505C8010E947E
:103CB0002024D50154964D915C91D12CC12CF12C2E
:103CC000E12C02E010E030E020E060E06BCF8A8D74
:103CD0009B8D800F911F1A8309839C838B83081708
:103CE000190708F0A7CDC3010E943324D5015596CA
:103CF0001C921E9254979ECD0E94D2032B013C0130
:103D0000F501808191810E946609D50157962D9118
:103D10003C9158972130310509F094C0F50181118B
:103D200032C046865786608A718A108E178A8081D3
:103D300091810E947909912CD50156968C915697C4
:103D4000815056968C93892DE8A1F9A10FB6F8946D
:103D5000FEBF0FBEEDBFA1960FB6F894DEBF0FBE3B
:103D6000CDBFDF91CF911F910F91FF90EF90DF902A
:103D7000CF90BF90AF909F908F907F906F905F900B
:103D80004F903F90089586819781A085B1859301DA
:103D90008201081B190B2A0B3B0BD901C801893181
:103DA00016EF9107A105B10560F00E94D10A8BE4DE
:103DB00094E00E941A0AD50158961C921E925797B9
:103DC000B6CC893C9F4AA105B10598F4F5018285DE
:103DD0009385A485B58593018201081B190B2A0BD5
:103DE0003B0BD901C801893C9F4AA105B10508F4E4
:103DF000F7CBF50186859785A089B189930182016A
:103E0000081B190B2A0B3B0BD901C80181379741BD
:103E1000A105B10508F4E4CBD12CC12CF12CE12C87
:103E200010E000E030E020E050E040E066E0C50156
:103E30000E940C20D5011E964D925D926D927C924F
:103E40005197CECB232B09F0CBCBF5014685578577
:103E50006089718993018201041B150B260B370BB6
:103E6000B901A8018823A9F04137574161057105BF
:103E700008F4B6CB0E94D10A8DE394E00E941A0A9E
:103E8000D5018D919C910E947909F501108E178AB8
:103E900052CF493853416105710508F4A1CB8D918A
:103EA0009C910E947909F50100811181D801189631
:103EB0008D919C91892BA9F10E94D10A8AEE92E002
:103EC0000E942505F8016085718586EF93E00E94C8
:103ED000E30A6AE386EF93E00E943104D8011A9660
:103EE0008D919C910E94BB0AF8018081918142854D
:103EF000538560857185DC01ED91FC910088F18925
:103F0000E02D099521E0019709F020E0F8012487D0
:103F1000948491105BC0F50146865786608A718A49
:103F20000BCF0E94D10A8BED92E00E942505D801AB
:103F300014966C9186EF93E00E94760A6EE286EF0B
:103F400093E00E943104F801658186EF93E00E94BE
:103F5000760A6EE286EF93E00E943104D80116964D
:103F60006C9186EF93E00E94760A6EE286EF93E012
:103F70000E943104F801678186EF93E00E94760A7F
:103F80006DEC71E086EF93E00E940B0AD8018D91F1
:103F90009C91DC01ED91FC910684F785E02DD80120
:103FA0001A964D915C911B972BEC31E03A83298353
:103FB0001496CD90DD90ED90FC901797CB82DC822B
:103FC000ED82FE82BE016F5F7F4F9BCF81E090E06C
:103FD000D50153969C938E93529712962D913C91B6
:103FE000F90101900020E9F731978F01021B130BB3
:103FF000D12CC12CF12CE12C41E050E06DE1C50148
:104000000E940C20F50182859385A485B58586875D
:104010009787A08BB18B90CE2F923F924F925F9259
:104020006F927F928F929F92AF92BF92CF92DF92C8
:10403000EF92FF920F931F93CF93DF9300D000D0A6
:1040400000D0CDB7DEB75C016E834A013901DC01D7
:104050008D919C910E946609882309F4D3C08E81BA
:104060008D7F09F401C1BE81B63009F4FDC0BD31B8
:1040700009F4FAC0F5018789908D019709F0C2C053
:1040800081149104B9F4D50154968D909C90559764
:104090008114910479F452968D919C9153970196D5
:1040A00009F4C9C053969C938E935297D5015296AA
:1040B0008D909C908E818C50893090F5F501828591
:1040C0009385A485B585468157816085718548179C
:1040D00059076A077B0710F4AC01BD011A012B01D7
:1040E000F2E42F0E311C411C511C0E94D203A2018C
:1040F0009101261B370B480B590BDA01C901B7FD9B
:10410000A0C0C5010E94B81A0E94D203A201910169
:10411000261B370B480B590BDA01C901B7FFF1CF4A
:10412000C80105966114710411F485E090E0512CEA
:10413000412CE114F10409F02601480E591EBE81FC
:10414000B9839824892498249B828A82C8018C0D83
:104150009D1D9827892798279D838C83D501ED91F4
:10416000FC9180819181DC01ED91FC910280F381D1
:10417000E02D45E050E0BE016F5F7F4F09954C0197
:1041800060E070E0CB010E949F03BE81BB2381F100
:1041900001151105A9F0D501ED91FC918081918166
:1041A000DC01ED91FC910280F381E02DA801B301C7
:1041B0000995880E991E60E070E0CB010E949F0374
:1041C000C114D104A9F0D501ED91FC9180819181B8
:1041D000DC01ED91FC910280F381E02DA601B70195
:1041E0000995880E991E60E070E0CB010E949F0344
:1041F0008414950479F1F501108E178A80819181DC
:104200000E94790926960FB6F894DEBF0FBECDBF87
:10421000DF91CF911F910F91FF90EF90DF90CF90A2
:10422000BF90AF909F908F907F906F905F904F90D6
:104230003F902F90089581E090E0F501938B828B61
:1042400035CFD50156968C9181116ACFC5010E9458
:10425000B81A66CF0E94D203D5011A966D937D934A
:104260008D939C931D97CECF8114910409F058CF64
:104270000ACFCF92DF92EF92FF920F931F93CF93CB
:10428000DF93CDB7DEB7C658D1090FB6F894DEBFBD
:104290000FBECDBF8C01CE010196CF57DF4F998362
:1042A0008883C158D040CD57DF4F19821882C35838
:1042B000D04080E890E0CB57DF4F99838883C55882
:1042C000D0406FE472E0CE018F579F4F0E946C1870
:1042D00066E070E0CE018F579F4F0E94931AB8019D
:1042E000CE018F579F4F0E946C18CD57DF4F08812A
:1042F0001981C358D04001501109CF57DF4F288191
:104300003981C158D040D12CC12CF12CE12C50E086
:1043100040E064E183E496E00E940C20CA57DF4F3E
:104320000FB6F894DEBF0FBECDBFDF91CF911F91C6
:104330000F91FF90EF90DF90CF9008958F929F9212
:10434000AF92BF92CF92DF92EF92FF920F931F93A3
:10435000CF93DF93CDB7DEB7C75AD1090FB6F89424
:10436000DEBF0FBECDBF0E9427096B017C01CE01CD
:1043700001964C01CE55DF4F99838883C25AD040B5
:10438000CC55DF4F19821882C45AD04020E8A22EA3
:10439000B12CCA55DF4FB982A882C65AD0406FE40B
:1043A00072E08F559F4F0E946C1861E070E0CE0163
:1043B0008E559F4F0E94931A8E010F571F4F23E077
:1043C00045E0C701B6010E949C2EB801CE018E5572
:1043D0009F4F0E946C18CC55DF4F08811981C45A39
:1043E000D04001501109CE55DF4F28813981C25A82
:1043F000D040D12CC12CF12CE12C50E040E064E104
:1044000083E496E00E940C200E9443098C01CE5563
:10441000DF4F99828882C25AD040CC55DF4F198233
:104420001882C45AD040CA55DF4FB982A882C65AF2
:10443000D0406FE472E0CE018E559F4F0E946C1801
:1044400063E070E0CE018E559F4F0E94931A4AE0C0
:10445000BE016F577F4FC8010E94F930BE016F57F0
:104460007F4FCE018E559F4F0E946C18CC55DF4F69
:1044700008811981C45AD04001501109CE55DF4F2F
:1044800028813981C25AD04050E040E064E183E4A1
:1044900096E00E940C20C955DF4F0FB6F894DEBF9E
:1044A0000FBECDBFDF91CF911F910F91FF90EF9085
:1044B000DF90CF90BF90AF909F908F9008951F9204
:1044C0000F920FB60F9211242F933F938F939F93C8
:1044D000AF93BF938091D1039091D203A091D30366
:1044E000B091D4033091D00323E0230F2D3758F53A
:1044F0000196A11DB11D2093D0038093D103909309
:10450000D203A093D303B093D4038091D5039091A9
:10451000D603A091D703B091D8030196A11DB11D78
:104520008093D5039093D603A093D703B093D80379
:10453000BF91AF919F918F913F912F910F900FBE9F
:104540000F901F90189526E8230F0296A11DB11D0C
:10455000D2CF1F920F920FB60F9211242F933F9339
:104560004F935F936F937F938F939F93AF93BF937B
:10457000EF93FF9386EF93E00E94B604FF91EF91D3
:10458000BF91AF919F918F917F916F915F914F916B
:104590003F912F910F900FBE0F901F9018951F9273
:1045A0000F920FB60F9211242F938F939F93EF9337
:1045B000FF93E0910604F09107048081E0910C04E0
:1045C000F0910D0482FD1BC0908180910F048F5FDC
:1045D0008F7320911004821741F0E0910F04F0E0F6
:1045E000EA50FC4F958F80930F04FF91EF919F91BC
:1045F0008F912F910F900FBE0F901F901895808173
:10460000F4CF1F920F920FB60F9211242F933F9366
:104610004F935F936F937F938F939F93AF93BF93CA
:10462000EF93FF938091B900887F803609F44AC0E8
:10463000F0F5883209F4A7C018F5803109F49BC061
:10464000B8F4882309F4F9C0883009F494C0FF91C4
:10465000EF91BF91AF919F918F917F916F915F91FA
:104660004F913F912F910F900FBE0F901F90189573
:10467000883109F488C0803251F780932D0314C02B
:10468000803409F49DC040F48033B9F38833F9F6DF
:1046900080932D0385ECB0C0803509F485C0883542
:1046A00009F496C0883499F60E94BC18D0CF883996
:1046B00009F48CC038F5883729F050F4883611F0A9
:1046C000803729F683E080932F031092080357C0A8
:1046D000883809F47BC0803919F0803809F0B7CFE9
:1046E00080910803803208F071C0E091080381E0F6
:1046F0008E0F809308038091BB00F0E0E851FD4FDE
:1047000080833DC0803B39F0E0F4803A09F479C001
:10471000883A09F09CCF84E080932F031092E7023F
:104720001092E602E091C703F091C80309958091C9
:10473000E60281110FC081E08093E6021092C6026A
:1047400009C0803C09F4A6CF883C09F4A3CF883B7C
:1047500009F07DCFE091E70281E08E0F8093E702C0
:10476000F0E0EA53FD4F80818093BB009091E70217
:104770008091E60229C080910A038093BB0085ECFA
:104780008093BC0064CF90912C0380912B039817E9
:1047900058F5E0912C0381E08E0F80932C03F0E01C
:1047A000E55FFC4F8081E9CFE0912C0381E08E0F23
:1047B00080932C038091BB00F0E0E55FFC4F808389
:1047C00090912C0380912B039817C8F285E8D8CFDD
:1047D000E0912C0381E08E0F80932C038091BB002D
:1047E000F0E0E55FFC4F808380912E0381115CCF68
:1047F00081E08093090384EA8093BC0010922F0328
:1048000026CF85EC8093BC0010922F038091080383
:10481000803230F4E0910803F0E0E851FD4F10825F
:104820006091080370E0E091C503F091C60388EE43
:1048300092E00995109208030ACF10922D0334CF0D
:10484000CF93DF93BC0186EF93E00E940B0AEC014B
:104850006DEC71E086EF93E00E940B0A8C0F9D1FB8
:10486000DF91CF910895DC01ED91FC911197309784
:1048700061F012962D913C911397E217F30728F4FB
:1048800001900020E9F7ED93FC930895FC018081ED
:104890009181009739F0228133818217930710F4B8
:1048A0000C94833090E080E00895AF92BF92CF9255
:1048B000DF92EF92FF920F931F93CF93DF93CDB7C9
:1048C000DEB7CF5BD1090FB6F894DEBF0FBECDBF08
:1048D0005C01CE0186589F4FC654DF4F9983888371
:1048E000CA5BD040C454DF4F19821882CC5BD040E1
:1048F00080E490E0C254DF4F99838883CE5BD04040
:104900006DE372E0CE0186549F4F0E946C1862E402
:1049100072E0CE0186549F4F0E946C1849E750E028
:104920006DE671E0CE0101960E94C830C454DF4F9D
:10493000C880D980CC5BD040C654DF4FE880F98076
:10494000CA5BD04009E710E09E012F5F3F4F50E067
:1049500040E061E1C5010E940C20C154DF4F0FB659
:10496000F894DEBF0FBECDBFDF91CF911F910F91A5
:10497000FF90EF90DF90CF90BF90AF900895E6EF5B
:10498000F3E01382128288EE93E0A0E0B0E084832B
:104990009583A683B78329E631E03183208325EC14
:1049A00030E03587248724EC30E03787268720ECF9
:1049B00030E0318B208B21EC30E0338B228B22ECEA
:1049C00030E0358B248B26EC30E0378B268B118E34
:1049D000128E138E148EE3E9F4E013821282848324
:1049E0009583A683B7838BE791E091838083EFE97A
:1049F000F4E08BEC91E09183808312821382148225
:104A00001582E5EAF4E09183808312821382148296
:104A10001582EBEAF4E09183808312821382148280
:104A20001582E1EBF4E09183808312821382148279
:104A30001582E7EBF4E09183808312821382148263
:104A40001582E3ECF4E09183808312821382148256
:104A50001582EDEBF4E0918380831282138214823D
:104A60001582E9ECF4E09183808312821382148230
:104A70001582EFECF4E0918380831282138214821A
:104A80001582EEE7F6E0918380831282138214820E
:104A90001582EFE6F6E01382128229E931E03183D4
:104AA000208324E0248728EE33E036872587A2E69A
:104AB000B6E013969C938E93129714961D921D92B6
:104AC0001D921C92179719961C921E9218971B966E
:104AD0001C921E921A971C961C921C971196FC937E
:104AE000EE9340E757E160E070E0448355836683CE
:104AF0007783E3E4F6E0B183A08313821282158208
:104B000014821682178210861186128613861486E6
:104B1000158616861786108A118A138A128A158AB4
:104B2000148A168A108E178A8FEF9FEF9093420691
:104B300080934106E5EDF4E0138212828DE891E066
:104B40009183808387E2848380E1818782E082870A
:104B500013860895CF93DF93CDB7DEB7C659D10939
:104B60000FB6F894DEBF0FBECDBF789484B58260D7
:104B700084BD84B5816084BD85B5826085BD85B501
:104B8000816085BD80916E00816080936E0010927F
:104B900081008091810082608093810080918100FA
:104BA000816080938100809180008160809380008B
:104BB0008091B10084608093B1008091B0008160E9
:104BC0008093B00080917A00846080937A00809115
:104BD0007A00826080937A0080917A00816080936D
:104BE0007A0080917A00806880937A001092C100E8
:104BF0000E94D10A89EB92E00E941A0A8EEF8093FC
:104C00005C069DEE90935D062AEB20935E068093F2
:104C10005F06809360069093610620E031E0D90141
:104C20000D900020E9F79D0121503140A0E0B1E056
:104C3000E1E0F0E0AD01405051404217530784F4E9
:104C4000AF014F5F5F4F6D91ED5BF94F818D86270F
:104C5000818F4630510514F041E050E0FA01EACF6F
:104C60008091BD0381112AC01092A5031092A40364
:104C700088EE93E0A0E0B0E08093A6039093A703B2
:104C8000A093A803B093A9038FE391E09093A303AB
:104C90008093A2038BEC91E09093B1038093B003D7
:104CA0001092B2031092B3031092B4031092B503A2
:104CB00084E08093BA0381E08093BD038FE593E0A5
:104CC00090935E0380935D0380915C038111ADC07E
:104CD00060E372E080E090E00E949F03DFB6F8940A
:104CE00000E213E0E4E3EE2EE3E0FE2E80915A03AF
:104CF000811125C0F8018491F7019491E82FF0E02B
:104D0000EE0FFF1FE953FD4FA591B4918C919823AD
:104D100021F461E08AE00E949E0261E08AE00E9444
:104D2000CC028CB580618CBD8CB580648CBD61E09B
:104D30008DE00E94CC0261E08BE00E94CC02809169
:104D40005A038F5F80935A03DFBEF8010491E02F6E
:104D5000F0E0EE0FFF1FEF52FD4F8591949190937D
:104D6000590380935803F701E490E092570361E000
:104D70008AE00E94CC020E94510780E591E00E94E7
:104D80005C0284E38093F50380E80E941D080E9482
:104D9000050D882309F43FC288E00E941D080E9487
:104DA000F20C883009F037C280E10E941D080E9491
:104DB000F20C803109F02FC280E00E941D080E9491
:104DC000F20C182F811127C241E050E0BE016F5F45
:104DD0007F4F8FE190E00E947D0B8981833009F045
:104DE0001AC280E480935B0342E06EE170E0812FA1
:104DF0000E94790842E06FE170E0812F0E947908FB
:104E00001F5F143089F740E06EE170E0812F0E944F
:104E1000790840E06FE170E0812F0E9479081F5F00
:104E2000183089F781E080935C0380E591E00E946F
:104E30005C0246E050E06CE576E089E090E00E949C
:104E40006D078BEC91E09A8389831B821C821D8203
:104E50001E8244E050E0BE016D5F7F4F8FE090E026
:104E60000E946D0700915D0310915E03D801929638
:104E70001D921D921D921C929597F80116A217A2E1
:104E800010A611A69A961D921D921D921C929D9796
:104E900080E69AEEA0E0B0E086AB97ABA0AFB1AFF2
:104EA00080EA9FE0A0E0B0E082AF93AFA4AFB5AFDF
:104EB000D801189686E0FD01282F11922A95E9F76E
:104EC0009801225F3F4F94E1F90111929A95E9F719
:104ED000ECE5F6E001900D928A95E1F72C5C3F4FEE
:104EE000C157DF4F39832883CF58D040D9011C9256
:104EF0000E942B302FEC37E040E050E00E947934E4
:104F0000DC01CB010196A11DB11DF80184839583BD
:104F1000A683B78380839183A283B3835801F3E48C
:104F2000AF0EB11CC5010E944D0C64E470E0C501D8
:104F30000E94B60F882309F4DFC10E94D2032B011F
:104F40003C0148EEC42E43E0D42EE12CF12C52E07B
:104F5000252E912C812CC157DF4FA881B981CF58C4
:104F6000D0408C918330E1F18111D6C1F801848168
:104F70009581A681B7810196A11DB11D848395837A
:104F8000A683B7830E94D20364197509860997091D
:104F9000A70196010E94E234A90161E0C8010E94C4
:104FA0005E1781E0C157DF4FA881B981CF58D0404B
:104FB0008C93F1E08F16910471F20E94D203641970
:104FC000750986099709D801D6962D913D914D9185
:104FD0005C91D997261737074807590708F0B9CFCA
:104FE000C5010E944D0CF80184819581A681B7818D
:104FF0000196A11DB11D84839583A683B7830E946A
:10500000D203F801FE9660837183828393838A942E
:10501000892809F071C180E591E00E945C0200914D
:105020005D0310915E03B801625F7F4F9E012F5FA9
:105030003F4F5901C9010E945B1344E050E0BE019B
:105040006D5F7F4F8FE090E00E946D07B8016A5E50
:105050007F4FC5010E945B1344E050E0BE016D5FCD
:105060007F4F81E090E00E946D07B8016E5E7F4F38
:10507000C5010E945B1344E050E0BE016D5F7F4FAD
:1050800085E090E00E946D07B801625E7F4FC50128
:105090000E945B138B819C81AD81BE818093BF0494
:1050A0009093C004A093C104B093C2040E947A03F9
:1050B0007F73809121019091220168277927709355
:1050C00022016093210168EE73E080E090E00E948D
:1050D0009F038BEC91E09A8389831B821C821D8243
:1050E0001E8280E591E00E945C0244E050E0BE0137
:1050F0006D5F7F4F8FE090E00E947D0B0E94D10A90
:1051000088EA92E00E9425056B8186EF93E00E9479
:10511000760A6EE286EF93E00E9431046C8186EF9E
:1051200093E00E94760A6EE286EF93E00E943104DB
:105130006D8186EF93E00E94760A6EE286EF93E03F
:105140000E9431046E8186EF93E00E94760A6DEC36
:1051500071E086EF93E00E940B0A80E091E090936B
:105160004606809345060E94D203DC01CB01885895
:105170009341A109B10980934D0690934E06A093E7
:105180004F06B09350068093490690934A06A09329
:105190004B06B0934C068093510690935206A09311
:1051A0005306B09354060E94D10A88EE91E00E9403
:1051B0001A0AE0914306F091440682E592E0918755
:1051C000808780E590E09387828780914306909165
:1051D00044060E94790910925B0610925A060E94BA
:1051E000D2036B017C0180915A0690915B06019776
:1051F00009F471C10E94D2036C197D098E099F09BF
:10520000603576448105910508F065C183E496E038
:105210000E94B81AE8CF87E38093F50380E80E94E4
:105220001D080E94050D882329F188E00E941D08B1
:105230000E94F20C8830F1F480E10E941D080E9467
:10524000F20C182F8031B1F480E00E941D080E94FA
:10525000F20C81110FC041E050E0BE016F5F7F4F43
:1052600089E390E00E947D0B8981843019F41093CA
:105270005B03D8CD83E38093F50380E80E941D088B
:105280000E94050D8823B1F180E10E941D080E9453
:10529000F20C803179F582E10E941D080E94F20C27
:1052A000823141F580E00E941D080E94F20C8111BC
:1052B00021C084E080935B0315E5C257DF4F18835C
:1052C000CE58D04041E050E0BE0162577F4F8BE1A5
:1052D00090E00E946D07C357DF4F1883CD58D04030
:1052E00041E050E0BE0163577F4F8AE190E00E94A9
:1052F0006D0798CD1092F5030E94D10A8CEA92E0D6
:105300000E941A0A60E177E280E090E00E949F0329
:10531000F0E0E0E00995FFCF843019F5F8018481D1
:105320009581A681B7810196A11DB11D84839583C6
:10533000A683B7830E94D203641975098609970969
:10534000A70196010E94E234A90163E0C8010E940E
:105350005E17C157DF4FA881B981CF58D0402C923A
:1053600028CE813079F5F80142AD53AD64AD75AD0D
:105370009E012F5F3F4FC8010E94F418382EF2E0C3
:105380008F139EC089819A81AB81BC81F80184838F
:105390009583A683B7830E94D20364197509860991
:1053A0009709A70196010E94E234A90163E0C801B0
:1053B0000E945E17C157DF4FA881B981CF58D040F6
:1053C0003C92F7CD823009F0F4CDF80142AD53ADF7
:1053D00064AD75AD9E012F5F3F4FC8010E94F41868
:1053E000382EF5E08F1361C0E3E0C157DF4FA8818D
:1053F000B981CF58D040EC93F80182A193A1A4A128
:10540000B5A1892B8A2B8B2B41F424E833E040E0B3
:1054100050E022A333A344A355A3F80186A197A18A
:10542000A0A5B1A5892B8A2B8B2B61F482A193A116
:10543000A4A1B5A1B695A7959795879586A397A39F
:10544000A0A7B1A7F80182A593A5A4A5B5A5892B0E
:105450008A2B8B2BA9F482A193A1A4A1B5A1AC01A5
:10546000BD0123E076956795579547952A95D1F725
:10547000841B950BA60BB70B82A793A7A4A7B5A770
:10548000F80186A197A1A0A5B1A586A797A7A0AB73
:10549000B1AB82A593A5A4A5B5A582AB93ABA4ABF4
:1054A000B5AB88248394912C84CDF6E08F1308C08B
:1054B000C157DF4FA881B981CF58D0401C9279CD18
:1054C000BFEF3B1276CDC157DF4FE881F981CF584E
:1054D000D04010826ECD80915A0690915B06019764
:1054E00009F073CE1092CC031092CB031092CA0332
:1054F0001092C9030E948C058EED93E09093C8032F
:105500008093C7038FED93E09093C6038093C50308
:105510001092DA048091DF04823018F098E09093C2
:10552000DA048093DD0462E370E080E090E00E94A2
:105530009F036091E00485ED94E00E94500668EEC0
:1055400073E080E090E00E949F0360E385ED94E0CB
:105550000E94A2090BE416E4C8010197F1F760E389
:1055600085ED94E00E94A209C8010197F1F760E37C
:1055700085ED94E00E94A20983E592E00197F1F79E
:1055800060E285ED94E00E94A2096091DA04606215
:1055900040E085ED94E00E94BB0984E08093DB0449
:1055A00040E06CE085ED94E00E94BB0940E061E0E2
:1055B00085ED94E00E94BB090BE31FE1C801019750
:1055C000F1F742E0F42EF092DC0440E066E085ED75
:1055D00094E00E94BB0940E062E085ED94E00E9407
:1055E000BB09C8010197F1F788E08093E00460E00F
:1055F00085ED94E00E94500640E061E085ED94E086
:105600000E94BB09C8010197F1F740E062E085ED17
:1056100094E00E94BB09C8010197F1F761E083E0C3
:105620000E94CC0261E085E00E94CC0261E084E04F
:105630000E94CC0260E085E00E949E0260E084E06F
:105640000E949E0260E080E00E94D2096EE572E056
:1056500085ED94E00E94E30A61E080E00E94D209B7
:1056600061E672E085ED94E00E94E30AE0910604B1
:10567000F0910704F082E0910204F091030410829B
:10568000E0910404F091050487E6808310920E04F3
:10569000E0910A04F0910B0486E08083E091080415
:1056A000F0910904808180618083E0910804F09189
:1056B0000904808188608083E0910804F0910904E6
:1056C000808180688083E0910804F09109048081E2
:1056D0008F7D80838FEF90E00E9440058FEF90E0F8
:1056E0000E9440058FEF90E00E94400580914106A6
:1056F0009091420697FF22C00E94D203E1EEF4E0AF
:1057000050E040E026E1249FD001259FB00D1124F8
:105710008D010F511B4FD801322F1D923A95E9F799
:1057200060837183828393834F5F5F4F76964031AE
:10573000510549F7109242061092410680914106A8
:10574000909142064097CCF5E1EEF4E090E080E0E5
:1057500024813581232B09F07AC226813781232BBE
:1057600009F075C226E1289F8001299F100D1124A0
:105770000F511B4F84EF91E0A0E0B0E0F801838768
:105780009487A587B6878EE991E2958384831286F4
:10579000108A178681E0838B0E94D203D8016D9313
:1057A0007D938D939C93139780914106909142062F
:1057B0000196909342068093410620E8822E912C18
:1057C00022242394312C8FE00E9465036FEF73E055
:1057D000681B790B769567957695679583E00E94AF
:1057E000080364E670E080E090E00E949F03C957E0
:1057F000DF4F19821882C758D040C757DF4F198230
:105800001882C958D040C557DF4F19821882CB582B
:10581000D04070E060E0CE0189579F4F0E949418FD
:10582000C957DF4F28813981C758D040811116C22E
:105830002115310519F0C9010E94562FC957DF4FB4
:1058400019821882C758D040C557DF4F1982188275
:10585000CB58D040C757DF4F19821882C958D04063
:105860000E942709CF57DF4F19821882C158D040B4
:10587000CD57DF4F19821882C358D040CB57DF4F26
:1058800019821882C558D040850122E044E00E9468
:105890009C2E7C01009709F4F8C1FC0101900020C6
:1058A000E9F731978F01081B190BB801CE018F570B
:1058B0009F4F0E949418CF57DF4F28813981C158DC
:1058C000D0408111D7C12115310519F0C9010E94BD
:1058D000562FCF57DF4F19821882C158D040CB576F
:1058E000DF4F19821882C558D040CD57DF4F19823B
:1058F0001882C358D040C957DF4F88819981C75853
:10590000D040009709F4CDC1CF57DF4F688179812E
:10591000C158D0406115710509F4C1C1C757DF4FA7
:1059200048815981C958D040CB57DF4F28813981F0
:10593000C558D0404217530708F4B1C10E948A36B7
:10594000CB57DF4F88819981C558D040C557DF4F6D
:1059500099838883CB58D040CB57DF4F1982188268
:10596000C558D040CF57DF4F88819981C158D0406A
:10597000009711F00E94562F60E082E00E94D20949
:10598000C557DF4F48815981CB58D040C957DF4FA9
:1059900068817981C758D04085ED94E00E94380431
:1059A0000E9443098C019093CF038093CE0361E062
:1059B00082E00E94D209A80170E060E02AE085ED53
:1059C00094E00E942A0A0E94270920E030E04CE07F
:1059D00052E40E94853518160CF05DC08091CD030D
:1059E000882309F458C01092CD0360E085E00E943E
:1059F0009E0260E087E00E94D20962E072E085EDDD
:105A000094E00E94E30A84E692E00E9439218CE847
:105A100092E00E943921CF57DF4FB982A882C15846
:105A2000D040CD57DF4F19821882C358D040CB5792
:105A3000DF4F99828882C558D0406FE472E0CE0172
:105A40008F579F4F0E946C1862E070E0CE018F5715
:105A50009F4F0E94931A70E060E0CE018F579F4FD6
:105A60000E94931ACD57DF4F08811981C358D04047
:105A700001501109CF57DF4F28813981C158D040DB
:105A8000D12CC12CF12CE12C50E040E064E183E406
:105A900096E00E940C2083E496E00E94B81A0E94CF
:105AA000D203CD56DF4F688379838A839B83C359A2
:105AB000D04081EEE82E84E0F82E8701F801158AA7
:105AC000148A84819581892B29F486819781892B79
:105AD00009F450C0D8012D913D914D915C911397DF
